:100000000C9475010C949D010C949D010C949D0120
:100010000C949D010C949D010C949D010C949D01E8
:100020000C949D010C949D010C949D010C949D01D8
:100030000C949D010C949D010C949D010C949D01C8
:100040000C94B2180C949D010C94D7020C94B1023C
:100050000C949D010C949D010C949D010C949D01A8
:100060000C947B030C949D01AED580A81FD3004057
:100070008D142002A1C8DA02817FD9F1DB40A4A649
:10008000AF000005072060000000000000005F00D6
:10009000000007000700147F147F14242A7F2A120F
:1000A00023130864623649562050000807030000F5
:1000B0001C2241000041221C002A1C7F1C2A080827
:1000C0003E0808008070300008080808080000603A
:1000D000600020100804023E5149453E00427F4026
:1000E0000072494949462141494D331814127F1085
:1000F00027454545393C4A494931412111090736CF
:1001000049494936464949291E000014000000406B
:100110003400000008142241141414141400412265
:10012000140802015909063E415D594E7C12111214
:100130007C7F494949363E414141227F4141413E10
:100140007F494949417F090909013E414151737F76
:100150000808087F00417F41002040413F017F089F
:100160001422417F404040407F021C027F7F0408F0
:10017000107F3E4141413E7F090909063E41512120
:100180005E7F09192946264949493203017F010347
:100190003F4040403F1F2040201F3F4038403F63CA
:1001A0001408146303047804036159494D43007F24
:1001B0004141410204081020004141417F040201F5
:1001C0000204404040404000030708002054547897
:1001D000407F284444383844444428384444287FE5
:1001E000385454541800087E090218A4A49C787F3F
:1001F0000804047800447D40002040403D007F100A
:1002000028440000417F40007C047804787C080486
:1002100004783844444438FC18242418182424183A
:10022000FC7C08040408485454542404043F442427
:100230003C4040207C1C2040201C3C4030403C4442
:10024000281028444C9090907C4464544C440008FE
:10025000364100000077000000413608000201022C
:1002600004023C2623263C68001980200000000080
:10027000002300260029007C3C3E5E2B3D3F2F5B87
:100280005D3B2C2A225C0000030C0F30333C3FC046
:10029000C3CCCFF0F3FCFF00000000240027002AAD
:1002A0000000000000250028002B000404040404C2
:1002B0000404040202020202020303030303030113
:1002C00002040810204080010204081020010204EA
:1002D00008102000000008000201000003040700CD
:1002E0000000000000000000622111241FBECFEFBB
:1002F000D8E0DEBFCDBF26E0A8E4B2E001C01D9289
:10030000A63BB207E1F712E0A0E0B1E0E4EEF6E4CC
:1003100002C005900D92A834B107D9F711E0C5E7E6
:10032000D1E004C02197FE010E941C22C437D107EE
:10033000C9F70E94FC180C9470230C940000FC0177
:10034000538D448D252F30E0842F90E0821B930B3A
:10035000541710F0CF96089501970895FC01918DE0
:10036000828D981761F0828DDF01A80FB11D5D9617
:100370008C91928D9F5F9F73928F90E008958FEF85
:100380009FEF0895FC01918D828D981731F0828D39
:10039000E80FF11D858D90E008958FEF9FEF089590
:1003A000FC01918D228D892F90E0805C9F4F821BF4
:1003B00091098F739927089588E795E00E94D001ED
:1003C00021E0892B09F420E0822F0895FC01848D1F
:1003D000DF01A80FB11DA35ABF4F2C91848D90E06F
:1003E00001968F739927848FA689B7892C93A0894A
:1003F000B1898C9180648C93938D848D981306C001
:100400000288F389E02D80818F7D80830895EF92AB
:10041000FF920F931F93CF93DF93EC0181E0888FBE
:100420009B8D8C8D981305C0E889F989808185FDA5
:1004300024C0F62E0B8D10E00F5F1F4F0F73112796
:10044000E02E8C8DE8120CC00FB607FCFACFE889BD
:10045000F989808185FFF5CFCE010E94E601F1CFB9
:100460008B8DFE01E80FF11DE35AFF4FF0820B8FD9
:10047000EA89FB898081806207C0EE89FF896083F9
:10048000E889F98980818064808381E090E0DF9150
:10049000CF911F910F91FF90EF900895CF93DF932D
:1004A000EC01888D8823C9F0EA89FB89808185FD6C
:1004B00005C0A889B9898C9186FD0FC00FB607FCCD
:1004C000F5CF808185FFF2CFA889B9898C9185FF0E
:1004D000EDCFCE010E94E601E7CFDF91CF910895E5
:1004E00080E090E0892B29F00E94DC0181110C94BE
:1004F00000000895CF92DF92EF92FF920F931F9327
:10050000CF93DF936C017A018B01C0E0D0E0CE1570
:10051000DF0589F0D8016D918D01D601ED91FC9137
:100520000190F081E02DC6010995892B11F47E011F
:1005300002C02196ECCFC701DF91CF911F910F919F
:10054000FF90EF90DF90CF90089585ED8093BC00F1
:100550008091BC0084FDFCCF1092550508950E9447
:100560004F231F920F920FB60F9211242F933F9398
:100570004F935F936F937F938F939F93AF93BF93AB
:10058000EF93FF9388E795E00E94E601FF91EF91DA
:10059000BF91AF919F918F917F916F915F914F919B
:1005A0003F912F910F900FBE0F901F9018951F92A3
:1005B0000F920FB60F9211242F938F939F93EF9367
:1005C000FF93E0918805F09189058081E0918E0587
:1005D000F0918F0582FD12C09081809191058F5F0F
:1005E0008F7320919205821751F0E0919105F0E010
:1005F000E858FA4F958F8093910501C08081FF9153
:10060000EF919F918F912F910F900FBE0F901F90A0
:1006100018956115710579F0FB0101900020E9F74B
:100620003197AF01461B570BDC01ED91FC91028025
:10063000F381E02D099480E090E008954F925F925D
:100640006F927F92EF92FF920F931F93CF93DF935E
:10065000CDB7DEB7A1970FB6F894DEBF0FBECDBF02
:100660007C01FA01CB0119A2223008F42AE08E01A4
:100670000F5D1F4F422E512C612C712CBF01A30125
:1006800092010E94F221F901CA01015011096A3058
:1006900014F4605D01C0695CD8016C93232B242B9A
:1006A000252B61F7B801C7010E940903A1960FB677
:1006B000F894DEBF0FBECDBFDF91CF911F910F9198
:1006C000FF90EF907F906F905F904F9008950F9301
:1006D0001F93CF93DF93EC010E9409038C016DEE11
:1006E00071E0CE010E940903800F911FDF91CF912D
:1006F0001F910F9108951F920F920FB60F92112420
:100700002F933F934F935F936F937F938F939F9319
:10071000AF93BF93EF93FF938091B900887F8036AA
:1007200009F49CC068F5883209F45BC090F480310C
:1007300009F454C038F4882309F4F6C0883009F469
:100740004DC0F6C0883109F44CC0803209F45DC058
:10075000EFC0803409F468C048F4803309F455C010
:10076000883309F0E5C080935305D8C0803509F47B
:100770004FC0883509F45DC0883409F0D9C0D6C0AF
:10078000883909F4C7C0A8F4883709F467C038F479
:10079000883609F463C0803709F460C0C9C088385E
:1007A00009F4B8C0803909F45FC0803809F0C0C0CE
:1007B0005BC0803B09F486C038F4803A09F466C017
:1007C000883A09F47FC0B4C0803C09F4A7C0883CD3
:1007D00009F4A4C0883B09F48AC0AAC080915005DE
:1007E00010C09091520580915105981770F5E091D5
:1007F000520581E08E0F80935205F0E0E15DFA4FE3
:1008000080818093BB0085EC86C0809353058EC0A9
:10081000E091520581E08E0F809352058091BB00DC
:10082000F0E0E15DFA4F808390915205809151058F
:100830006EC0E091520581E08E0F80935205809149
:10084000BB00F0E0E15DFA4F808380915405811197
:100850006DC081E080934F0584EA61C083E080939E
:10086000550510920903CFCF80910903803208F01B
:1008700051C0E091090381E08E0F809309038091BC
:10088000BB00F0E0E751FD4F8083BDCF85EC809346
:10089000BC001092550580910903803230F4E0913C
:1008A0000903F0E0E751FD4F10826091090370E009
:1008B000E091E702F091E80289EE92E0099510924A
:1008C000090336C084E0809355051092E602109229
:1008D000E502E091E302F091E40209958091E502DE
:1008E000811105C081E08093E5021092C302E0917E
:1008F000E60281E08E0F8093E602F0E0ED53FD4FBB
:1009000080818093BB009091E6028091E502981768
:1009100008F479CF85E88093BC000AC085EC809309
:10092000BC001092550504C0109253050E94A50208
:10093000FF91EF91BF91AF919F918F917F916F91B7
:100940005F914F913F912F910F900FBE0F901F908D
:1009500018954091E502262F30E0240F311D2132F9
:100960003105DCF4209155052430C9F4FC0180E008
:1009700090E0861758F43091E5022191DC01AD53E7
:10098000BD4FA30FB11D2C930196F3CF8091E502CB
:10099000680F6093E50280E0089581E0089582E0A9
:1009A00008958FB7F8948091C2028FBF089561E0D7
:1009B000FC0184810E94DB178091C1028111109299
:1009C000C10208958EBD00000DB407FEFDCF8EB5A7
:1009D00008958FEF0C94E2040F931F93CF93DF934E
:1009E000EB010E946C188B010E94E9048F3F49F0D3
:1009F0000E946C18601B710B6C177D07A8F380E0D8
:100A000001C081E0DF91CF911F910F910895CF93A5
:100A1000DF93EC018E81882389F08F8198859C017A
:100A20002F5F3F4F38872F838230924018F40E9407
:100A3000E904F3CFCE010E94D7041E82DF91CF914B
:100A400008958CBD9DBD0895CF93DF93EC018091F7
:100A5000C102811109C081E08093C1028091150615
:100A6000909116060E94210560E08C81DF91CF9164
:100A70000C94DB17CF92DF92FF920F931F93CF93CB
:100A8000DF9300D000D0CDB7DEB76C01F62E2983FE
:100A90003A834B835C830E940705C6010E942405AC
:100AA0006CE271E0C6010E94EC048F2D80640E940C
:100AB000E20408E110E05C814B813A812981DA018E
:100AC000C901002E04C0B695A795979587950A94FD
:100AD000D2F729833A834B835C830E94E204085057
:100AE000110929813A814B815C81083F8FEF1807FA
:100AF00031F7FF2029F0E8E0FE1204C087E803C0C8
:100B000085E901C08FEF0E94E20410E00E94E90431
:100B1000F601828787FF04C01F3F11F01F5FF6CFE9
:100B20000F900F900F900F90DF91CF911F910F9129
:100B3000FF90DF90CF900895AF92BF92CF92DF9257
:100B4000EF92FF920F931F93CF93DF93EC01690114
:100B5000C801820F931F8130924008F070C08E81CF
:100B6000882371F088819981AA81BB814817590730
:100B70006A077B0729F48F819885C816D906B0F5D6
:100B8000488359836A837B838B85833039F089E07E
:100B9000440F551F661F771F8A95D1F79A01AB0145
:100BA00061E1CE010E943A05882319F083E08D832C
:100BB00046C00E946C185B010E94E9048A878F3F3F
:100BC00049F40E946C186A197B096D327140A0F3D8
:100BD0008FE003C08E3F31F08DE08D83CE010E9407
:100BE000D7042DC018861F8281E08E838F8198855F
:100BF0008C159D0540F40E94E9048F81988501962B
:100C000098878F83F3CF6701E00EF11ECE14DF04C7
:100C100031F00E94E904F60181936F01F7CF8F81D3
:100C20009885080F191F18870F838985882319F065
:100C30000115124048F0CE010E94070505C0CE0103
:100C40000E94D70480E001C081E0DF91CF911F9125
:100C50000F91FF90EF90DF90CF90BF90AF900895ED
:100C6000EF92FF920F931F93CF93DF93EC017901E3
:100C7000411551056105710511F482E13CC08B8578
:100C8000833039F089E0440F551F661F771F8A951E
:100C9000D1F79A01AB0168E1CE010E943A058823A1
:100CA00011F084E028C08EEF0E94E20487018EEFED
:100CB000F81AF80181918F010E94E2040E151F05B8
:100CC000C1F78FEF0E94E2048FEF0E94E2040E94BE
:100CD000E9048A878F71853031F081E18D83CE01FF
:100CE0000E94D70409C068E572E0CE010E94EC04BE
:100CF000811107C085E18D83CE010E94D70480E079
:100D000013C020E030E0A9016DE0CE010E943A0559
:100D1000811104C00E94E904882311F084E1EBCF23
:100D2000CE010E94D70481E0DF91CF911F910F91F6
:100D3000FF90EF900895CF93DF93EC018D8188238E
:100D4000A1F18C8187FF2DC06E857F858889998967
:100D500041E00E94EC0E882341F1EA8980E2E89F9D
:100D6000F0011124DF01A55FBC4F1097F1F08D81D8
:100D7000823050F44B895C896D897E895C964D93F5
:100D80005D936D937C935F978F89988DA98DBA8DB4
:100D9000E55FFC4F938F828FB58BA48B8C818F770F
:100DA0008C83DF91CF910C94B10E80E0DF91CF91D5
:100DB00008958F929F92AF92BF92CF92DF92EF925F
:100DC000FF920F931F93CF93DF93EC018D818111DD
:100DD00002C080E077C00B891C892D893E890417E9
:100DE000150726073707A8F36A017B01823029F42B
:100DF000CA86DB86EC86FD860DC0C114D104E104F1
:100E0000F10451F41E821F82188619861A861B86E9
:100E10001C861D8681E056C08A849B84AC84BD8478
:100E2000EB8DFC8D258530E0275F3F4FB501A40198
:100E30004150510961097109022E04C076956795E8
:100E4000579547950A94D2F7D701C6010197A10992
:100E5000B10904C0B695A795979587952A95D2F7BD
:100E600084179507A607B70720F089288A288B28BA
:100E700049F44F89588D698D7A8D4E835F836887D9
:100E8000798704C0841B950BA60BB70B4C015D0141
:100E90008E010A5F1F4F81149104A104B10409F46B
:100EA000A7CF4E815F816885798598018B8D9C8D58
:100EB0000E94D50F91E0891A9108A108B10881110B
:100EC000EACF87CFDF91CF911F910F91FF90EF90E5
:100ED000DF90CF90BF90AF909F908F9008952F920A
:100EE0003F924F925F926F927F928F929F92AF92BA
:100EF000BF92CF92DF92EF92FF920F931F93CF9307
:100F0000DF9300D000D0CDB7DEB78C015B011A01B2
:100F1000DC0115968C9115978130C9F414968C914B
:100F200081FF15C082FF1BC0F80143895489658980
:100F3000768982859385A485B58584179507A6074C
:100F4000B70769F0C8010E94D906811108C081E085
:100F500090E0F8019383828380E090E039C16101E1
:100F600083C0D8015B968D919C915C97FC01248194
:100F700021502A013B0139E07694679457944794B5
:100F80003A95D1F7722E74207A01F1E0FF22772092
:100F900009F476C080E092E08E199F0946018C1515
:100FA0009D0508F44C01D8015B962D913C915C970E
:100FB00016968D919D910D90BC91A02D0297A1093F
:100FC000B109F901058404C0880F991FAA1FBB1F2E
:100FD0000A94D2F74685578560897189840F951FD9
:100FE000A61FB71F9C01AD01270D311D411D511DCD
:100FF00029013A01811432E0930609F088C08091FA
:10100000000190910101A0910201B09103018415AA
:101010009505A605B70559F48FEF9FEFDC01809386
:10102000000190930101A0930201B0930301950187
:10103000B301A2018091A7069091A8060E943006F4
:10104000882309F484CF9EEFB91AC818D908F8018B
:1010500082859385A485B585880D991DA11DB11D37
:1010600082879387A487B587D8011A964D915D91A1
:101070006D917C911D97C114D10409F072CF87C086
:10108000E114F10409F086CF16964D915D916D91B2
:101090007C911997411551056105710559F45796D1
:1010A0008D919D910D90BC91A02D0097A105B1054A
:1010B00041F521C09E012F5F3F4F0E94D50F88232D
:1010C00009F44BCF89819A81AB81BC81F801238DD2
:1010D000348DF9012789203129F048EF5FEF6FEF58
:1010E0007FE004C048EF5FEF60E070E08417950791
:1010F000A607B70730F0C8010E94591081114ACFE6
:1011000026CFF80186839783A087B18743CFE11468
:10111000F10429F5D8011A964D915D916D917C915C
:101120001D9753968D919D910D90BC91A02D4817C0
:1011300059076A077B0798F00E94B10E882309F4CB
:1011400006CF40920001509201016092020170921C
:10115000030180910A03816080930A0308C041E083
:10116000C301B2010E94EC0E882309F4F0CED50130
:10117000F701E55FFC4FCF01880D991DE817F907CE
:1011800019F02D912193FACFA80CB91C5ECF53967C
:101190008D919D910D90BC91A02D84179507A60768
:1011A000B70740F4F801438B548B658B768B8481B1
:1011B00080688483D80114968C9183FD02C0C1019C
:1011C00007C0C8010E949B06882309F4C0CEF7CF50
:1011D0000F900F900F900F90DF91CF911F910F9173
:1011E000FF90EF90DF90CF90BF90AF909F908F9047
:1011F0007F906F905F904F903F902F900895CF9386
:10120000DF931F92CDB7DEB7698341E050E0BE01A6
:101210006F5F7F4F0E946F070F90DF91CF9108950E
:10122000CF93DF93EC010E949B06882311F01D826F
:1012300081E0DF91CF910895CF93DF93EC016A8B2A
:101240008091000190910101A0910201B0910301F0
:101250008E879F87A88BB98B80E2689FF00111244D
:10126000E55FFC4F4489558960E070E0BA0155277D
:1012700044274F8B588F698F7A8F828D938DA0E092
:10128000B0E0482B592B6A2B7B2B4F8B588F698FE3
:101290007A8F8385887151F4848D958DA68DB78D55
:1012A0008B8B9C8BAD8BBE8B81E00EC0803111F09F
:1012B00080E015C09E012D5E3F4F8B8D9C8D0E945E
:1012C0005C118823A9F384E08D8381E08C831E82E6
:1012D0001F82188619861A861B861C861D86DF913A
:1012E000CF910895CF93DF93C82F0E949B17803929
:1012F000914058F00E946C18EB010E946C186C1B16
:101300007D0B65367105C8F312C08C2F0E949B17A8
:10131000893C910558F40E946C18EB010E946C18EE
:101320006C1B7D0B65367105C8F301C001C081E0FF
:10133000DF91CF910895909155059111FCCF6132C5
:1013400008F060E291E090935505909354052FEFDB
:101350002093530510925205260F20935105909328
:10136000500590915005880F892B809350058091EE
:101370004F05813061F410924F05809150058093A4
:10138000BB008091BC0083FDF8CF85EC01C085EEE9
:101390008093BC00809155058130E1F38091520526
:1013A000861710F460915205AFE2B5E028E535E00C
:1013B000F9018E2F821B861718F48D918193F9CF36
:1013C0001092570560935605862F089520912E059B
:1013D00090912D05213208F04AC080915505811168
:1013E000FCCF32E03093550531E0309354053FEFA8
:1013F000309353051092520520935105ADE0B5E0AE
:101400004FE255E0FA013E2F341B321718F43D919C
:101410003193F9CF1092500520915005990F922BDE
:101420009093500590914F05913061F410924F05C3
:10143000909150059093BB009091BC0093FDF8CF24
:1014400095EC01C095EE9093BC00909155059230BB
:10145000E1F3909153059F3F79F0809153058032DD
:1014600041F080915305803331F084E005C081E084
:1014700003C082E001C083E010920C0510922E059B
:1014800010920B050895CF93DF93C7E8D6E09981BA
:1014900021E020930B0590932D0510920C051092DE
:1014A0002E05682F87E196E00E945E0E0E94E609F5
:1014B000888362E089810E949B0987E196E00E940F
:1014C0005D0DD82F80E0C82F87E196E00E945D0D6A
:1014D0008C2B9D2BDF91CF9108951F93CF93DF939A
:1014E000162FC7E8D6E0998121E020930B05909351
:1014F0002D0510920C0510922E05682F87E196E0BD
:101500000E945E0E612F87E196E00E945E0E0E94AF
:10151000E6098883DF91CF911F910895CF93DF93E0
:10152000C7E8D6E0998121E020930B0590932D0523
:1015300010920C0510922E05682F87E196E00E940C
:101540005E0E0E94E609888361E089810E949B0902
:1015500087E196E00E945D0DDF91CF910895682F9D
:10156000616080E00E946D0A0E946C1870938D0685
:1015700060938C0683E10E948E0A8770B9F4809193
:10158000890690918A06892BA9F30E946C182091F4
:101590008C0630918D06621B730B809189069091A9
:1015A0008A068617970730F780E0089561E08BE0A0
:1015B0000E946D0A60E080E00E946D0A81E008955B
:1015C000CF93DF93EC0181E00E948E0A84FB992780
:1015D00090F9988383FB992790F99A8382FB992746
:1015E00090F9998386FB992790F99B83982F991FEF
:1015F0009927991F9C83DF91CF9108954F925F9215
:101600006F927F928F929F92AF92BF92CF92DF9212
:10161000EF92FF920F931F93CF93DF938C01EB0117
:1016200080E50E948E0A8F5F880F90E099838883FF
:1016300086E40E948E0AE82EF12C8FEFE81AF80A51
:10164000FD82EC82A881B0E020E03FE24AE350E076
:101650000E94D8216C507E4F8F4F9F4FE8EE4E2E48
:10166000E3E05E2E612C712CA30192010E94F22115
:1016700049015A01D7010E941422B694A794979465
:101680008794680D791D8A1D9B1DA30192010E94FC
:10169000F2212A873B874C875D8781E50E94430AB8
:1016A0005C01BB2402C0AA0CBB1C9A95E2F7EFEFC9
:1016B000AE1ABE0ABF82AE82A881B0E020E03FE24F
:1016C0004AE350E00E94D8216C507E4F8F4F9F4FCD
:1016D000A30192010E94F22169017A01D5010E94C1
:1016E000D821F694E794D794C7946C0D7D1D8E1D78
:1016F0009F1DA30192010E94F2212E873F87488BF4
:10170000598B80E70E948E0A8F5F880F90E09B8341
:101710008A8381E70E94430A9C01332702C0220F7B
:10172000331F9A95E2F72F5F3F4F39872887F801DB
:101730008381882331F08E819F81281B390B398763
:101740002887AA81B0E020E03FE24AE350E00E940F
:10175000D8216C507E4F8F4F9F4F28EEC22E23E032
:10176000D22EE12CF12CA70196010E94F221490111
:101770005A01B694A79497948794A885B9850E9436
:10178000D821680D791D8A1D9B1DA70196010E9415
:10179000F2212A8B3B8B4C8B5D8BDF91CF911F917C
:1017A0000F91FF90EF90DF90CF90BF90AF909F9000
:1017B0008F907F906F905F904F900895EF92FF927F
:1017C0001F93CF93DF931F92CDB7DEB7162F97E805
:1017D000E92E96E0F92EF701918121E020930B0587
:1017E00090932D0510920C0510922E05682F87E11D
:1017F00096E079830E945E0E7981672F87E196E0FB
:101800000E945E0E612F87E196E00E945E0E0E94AC
:10181000E609F70180830F90DF91CF911F91FF9030
:10182000EF900895AF92BF92CF92DF92EF92FF9226
:101830000F931F93CF93DF93CDB7DEB72B970FB6E0
:10184000F894DEBF0FBECDBF7C01CE0101966C01C6
:10185000FC0190E28BE08C0D91938E13FDCFDA01A9
:1018600020E037E09D91992339F19E3219F0E7E7A6
:10187000F2E00AC03A3009F4AAC028E03AE0F2CF18
:101880003196891709F4A3C084918111F9CF3217D9
:1018900008F49DC08FED890F8E3508F098C081E067
:1018A000820FF601E20FF11D2FE9290F2A3108F40A
:1018B00090529083282FD6CF8981803209F487C037
:1018C0008B01FB01838D948DF701948F838FFB0136
:1018D0001682178210861186128613861486158644
:1018E000A12CF80182859385A485B5854389548907
:1018F0006589768984179507A607B70708F067C03A
:1019000025E0B695A795979587952A95D1F7F82F55
:10191000FF70BF2EF8018581823008F458C0C801DD
:101920000E94FA1197FD53C0F80182859385A48522
:10193000B5854F96A11DB11D82879387A487B58772
:10194000F0E2BF9EC0011124BC01655F7C4F6115B0
:101950007105E9F1FB0120812223B9F1253EE1F077
:101960004BE050E0C6010E945423892B09F0B9CF07
:101970006B2DC7012B960FB6F894DEBF0FBECDBFFF
:10198000DF91CF911F910F91FF90EF90DF90CF905B
:10199000BF90AF900C941C09A11014C0F701B28A3B
:1019A0004091000150910101609102017091030189
:1019B00046875787608B718BFC01E55FFC4F808108
:1019C000882329F0AA24A3948CCFAA2039F380E09D
:1019D0002B960FB6F894DEBF0FBECDBFDF91CF912F
:1019E0001F910F91FF90EF90DF90CF90BF90AF903D
:1019F0000895CF93DF93FC012581222311F080E02D
:101A000049C0EC01809146068031C1F482E08583B3
:101A1000178A108E118E128E80914706909148067B
:101A2000A0E0B0E025E0880F991FAA1FBB1F2A95F0
:101A3000D1F7838B948BA58BB68B19C08032F9F6C6
:101A400083E085834091490650914A0660914B0698
:101A500070914C06478B508F618F728F9F012D5E66
:101A60003F4F8FE296E00E945C11882341F28FE2A3
:101A700096E09C8F8B8F81E08C831E821F8218865C
:101A800019861A861B861C861D861E861F86188A46
:101A9000198A1A8ADF91CF9108950895E091570528
:101AA00080915605E81730F4F0E0E85AFA4F80814B
:101AB00090E008958FEF9FEF0895909157058091E2
:101AC0005605981750F4E92FF0E0E85AFA4F2081B4
:101AD00030E09F5F9093570502C02FEF3FEFC901A1
:101AE00008958091560590E020915705821B910939
:101AF0000895DC015996ED91FC915A973097B9F011
:101B000083899489A589B6894285538564857585BD
:101B1000841B950BA60BB70B811520E89207A10536
:101B2000B10538F08FEF9FE7A0E0B0E0089580E0C6
:101B300090E00895CF93DF931F92CDB7DEB769830E
:101B4000DC01ED91FC910280F381E02D41E050E059
:101B5000BE016F5F7F4F09950F90DF91CF91089580
:101B6000CF93DF93EC019C818E81981758F4E88124
:101B7000F9810084F185E02D42E0CE0109958C8148
:101B80008F5F8C83DF91CF910895FC016093BC003F
:101B90008091BC0087FFFCCF9091B900987F908323
:101BA0000895CF92DF92EF92FF920F931F93CF93FE
:101BB000DF93EC01C62ED42E8F85882351F041117E
:101BC00008C084E98093BC008091BC0084FDFCCFF8
:101BD0001F86EF848E01035F1F4FE11014C0FE8447
:101BE00064EAC8010E94C50D8D85883011F18031ED
:101BF00001F1DD2011F080E4E82EE092BB0064E802
:101C0000C8010E94C50DC092BB0064E8C8010E94D3
:101C1000C50D82E0D81204C08F858F5F8F8711C0F9
:101C200084E98093BC008091BC0084FDFCCF1F86BA
:101C300008C0FF0CF092BB0064E8C8010E94C50D0B
:101C4000D8CFDF91CF911F910F91FF90EF90DF9050
:101C5000CF900895089580E090E00895CF92DF92AC
:101C6000EF92FF920F931F93CF93DF937C01262F68
:101C7000972F8A0180910B05882391F0C62FD72FCB
:101C80006E01C40ED51ECC15DD0571F06991D7012A
:101C9000ED91FC910190F081E02DC7010995F3CF02
:101CA000642F822F0E94A904C801DF91CF911F9158
:101CB0000F91FF90EF90DF90CF900895CF93DF9337
:101CC0001F92CDB7DEB7698320910B052223D1F097
:101CD00020912E05203240F021E030E0FC013383DA
:101CE000228380E090E015C080910C05E82FF0E0A1
:101CF000E35FFA4F998190838F5F80930C05809307
:101D00002E0505C061E0CE0101960E94A90481E084
:101D100090E00F90DF91CF910895FC01818D928D1D
:101D2000009711F00C949B060895CF93DF93EC017C
:101D3000898D9A8D009739F481E090E09B838A83A6
:101D400080E090E00BC0FC01138212820E946F07BA
:101D5000E98DFA8D22813381232B71F7DF91CF91A9
:101D6000089580910A038823A9F1409100015091C0
:101D7000010160910201709103012BE033E0809139
:101D8000A7069091A8060E943006811102C080E04B
:101D900008954091A3065091A4066091A506709104
:101DA000A606411551056105710591F02BE033E060
:101DB0008091A7069091A8060E943006882339F3E7
:101DC0001092A3061092A4061092A5061092A606E1
:101DD00010920A0381E008958F929F92AF92BF9272
:101DE000EF92FF920F931F93CF934B015C01C42F8F
:101DF0008091000190910101A0910201B091030135
:101E000088159905AA05BB0501F10E94B10E811143
:101E100002C080E020C08BE0E82E83E0F82E00E0D6
:101E200012E020E030E0B501A4018091A706909176
:101E3000A8060E949C05882361F38092000190927D
:101E40000101A0920201B092030180910A03C82B04
:101E5000C0930A0381E0CF911F910F91FF90EF9003
:101E6000BF90AF909F908F9008954F925F926F9226
:101E70007F928F929F92AF92BF92CF92DF92EF921A
:101E8000FF920F931F93CF93DF93EC016A017B01C5
:101E900028013901423051056105710510F480E0D7
:101EA00073C089859A85AB85BC850196A11DB11D3E
:101EB00084179507A607B70790F38B889C88AD8891
:101EC000BE888F89803129F4BB27AF2D9E2D8D2DA3
:101ED00009C0DB01CA0147E0B695A795979587959C
:101EE0004A95D1F7880E991EAA1EBB1E809100014B
:101EF00090910101A0910201B09103018816990609
:101F0000AA06BB0679F48F898031A1F4DD24EE2482
:101F1000FF24C601880F991FFC01E55FFC4F518229
:101F2000408219C040E0C501B4010E94EC0E81114D
:101F3000EACFB5CFE894C7F8DD24EE24FF24C6012C
:101F4000880F991F880F991FFC01E55FFC4F4082A5
:101F500051826282738280910A03816080930A03B6
:101F60008A89823080F08D819E81AF81B885880E0C
:101F7000991EAA1EBB1E8092A3069092A406A09250
:101F8000A506B092A60681E0DF91CF911F910F9137
:101F9000FF90EF90DF90CF90BF90AF909F908F9089
:101FA0007F906F905F904F9008958F929F92AF9225
:101FB000BF92CF92DF92EF92FF920F931F93CF9336
:101FC000DF93FC0181859285A385B4850196A11DCF
:101FD000B11D84179507A607B70710F480E05CC011
:101FE00083899489A589B689C789C03129F4852E4A
:101FF000962EA72EBB2409C04A015B01C7E0B69408
:10200000A79497948794CA95D1F7E9016A017B0157
:102010008F01BC01CD01680D791D8A1D9B1D80902B
:10202000000190900101A0900201B0900301681599
:1020300079058A059B0599F4F80187898031A9F40F
:10204000B701A601552766277727440F551FFA01C8
:10205000E55FFC4F80819181A0E0B0E018C040E0D6
:102060000E94EC0E8111E8CFB9CFB701A6014F77DE
:10207000552766277727440F551F440F551FFA0130
:10208000E55FFC4F80819181A281B381BF7088831D
:102090009983AA83BB8381E0DF91CF911F910F9138
:1020A000FF90EF90DF90CF90BF90AF909F908F9078
:1020B00008953F924F925F926F927F928F929F927C
:1020C000AF92BF92CF92DF92EF92FF920F931F9346
:1020D000CF93DF93CDB7DEB72C970FB6F894DEBF62
:1020E0000FBECDBF5C01DC015B968D909C905C9730
:1020F0001696CD90DD90ED90FC901997C114D10407
:10210000E104F10439F0BFEFCB1ADB0AEB0AFB0A5A
:10211000312C07C0F401C080D180E280F3803324E9
:102120003394F40181859285A385B4859C01AD012A
:102130002F5F3F4F4F4F5F4F29873A874B875C8711
:10214000260137011D821E821F821886F4018185B7
:102150009285A385B4852D813E814F8158852817AE
:1021600039074A075B0708F063C089859A85AB8504
:10217000BC858C159D05AE05BF0550F482E0C82EC8
:10218000D12CE12CF12C92E0492E512C612C712C98
:102190009E012F5F3F4FB701A601C4010E94D50FDA
:1021A000882309F445C089819A81AB81BC81892B40
:1021B0008A2B8B2B41F0260137019FEF491A590AD0
:1021C000690A790A05C0C414D504E604F70491F03D
:1021D0002D813E814F8158852F5F3F4F4F4F5F4F7D
:1021E0002D833E834F8358873FEFC31AD30AE30AF8
:1021F000F30AACCF0FEF1FEF2FEF3FE0B301A201C7
:10220000C4010E94350F882399F0D50116964D918F
:102210005D916D917C91199741155105610571058D
:1022200049F093018201C4010E94350F811102C05F
:1022300080E02AC0D50116964D925D926D927C92F7
:102240001997332051F0D301C2010196A11DB11D90
:10225000F40180839183A283B383F5018789908DF4
:10226000A18DB28D892B8A2B8B2B69F4D5015796C2
:102270004D925D926D927C925A9714968C91149720
:10228000806814968C9381E02C960FB6F894DEBF8C
:102290000FBECDBFDF91CF911F910F91FF90EF90B7
:1022A000DF90CF90BF90AF909F908F907F906F9076
:1022B0005F904F903F9008954F925F926F927F9200
:1022C000AF92BF92CF92DF92EF92FF920F931F9344
:1022D000CF93DF9300D000D0CDB7DEB78C01498318
:1022E0005A836B837C835901C12CD12C7601412CFC
:1022F00082E0582E612C712C49815A816B817C813E
:102300009E012F5F3F4FC8010E94D50F882351F1D6
:10231000D301C201F801058404C0880F991FAA1FC8
:10232000BB1F0A94D2F7C80ED91EEA1EFB1E4981B4
:102330005A816B817C818789803129F088EF9FEFFA
:10234000AFEFBFE004C088EF9FEFA0E0B0E0481718
:1023500059076A077B0780F2F501C082D182E282C9
:10236000F38281E00F900F900F900F90DF91CF914B
:102370001F910F91FF90EF90DF90CF90BF90AF90A3
:102380007F906F905F904F900895EF92FF920F9320
:102390001F93CF93DF93EC017B018A011B821A828A
:1023A00088EE93E0A0E0B0E08C839D83AE83BF8392
:1023B00080E491E0998388838DE190E00E9422225D
:1023C0009A8F898F009779F02DE1F701DC01019058
:1023D0000D922A95E1F74CE050E0B801CE010C9641
:1023E0000E946123188EDF91CF911F910F91FF9072
:1023F000EF9008952F923F924F925F926F927F924B
:102400008F929F92AF92BF92CF92DF92EF92FF9204
:102410000F931F93CF93DF9300D0CDB7DEB7FC01AE
:102420008581882309F4D9C0848180FFD6C021E04A
:102430002A83438954896589768982859385A48511
:10244000B585481759076A077B0709F41A826F0197
:102450003A81832F90E0DE0111964D013F01B6E0F5
:102460006B0E711C892B09F47DC0D6011A964D9113
:102470005D916D917C911D975A01B1E0BB22F601EF
:1024800025811A012B0189E05694479437942794AB
:102490008A95D1F7838D948D223061F4FC01828D71
:1024A000938DA48DB58DBC01CD01620D731D841D6E
:1024B000951D45C0DC0114961C9111501221A114E8
:1024C000B104D1F4111118C0452B462B472B51F400
:1024D000F6018789908DA18DB28D86839783A08721
:1024E000B1870AC0468157816085718593010E943A
:1024F000D50F882309F471C0F601238D348D8681B0
:102500009781A085B1850297A109B109AC01BD01F0
:10251000F901058404C0440F551F661F771F0A94F4
:10252000D2F786859785A089B189840F951FA61F4C
:10253000B71FBC01CD01610F711D811D911DD60119
:1025400014962C9126FF14C00091000110910101F6
:1025500020910201309103016017710782079307F0
:1025600051F506C0FA81FF23C1F1898190E037C09F
:1025700040E00E94EC0E882381F1F501E55FFC4FFD
:10258000D401CF010196E817F90719F021912D9395
:10259000FACFEFEF8E1A9E0AF60182859385A48505
:1025A000B5850196A11DB11D82879387A487B58744
:1025B00080E090E057CF740101E010E09501AB019D
:1025C000BC018091A7069091A8060E949C058823D3
:1025D00021F0BFEF8B1A9B0ADFCF8FEF9FEF0F9099
:1025E0000F90DF91CF911F910F91FF90EF90DF90AF
:1025F000CF90BF90AF909F908F907F906F905F90A3
:102600004F903F902F900895FC01818D928D0097FF
:1026100011F00C94FA118FEF9FEF08950F931F9311
:10262000CF93DF93FC01818D928D0097B9F0EF017C
:102630000E94FA118C010F3F8FEF180791F0898DDE
:102640009A8DFC01428553856485758541505109F9
:10265000610971090E94D906C80105C080E090E0B7
:1026600002C08FEF9FEFDF91CF911F910F910895DF
:10267000DC01ED91FC910084F185E02D40E00994AE
:102680000F931F93CF938C01FC0164839085C62F19
:10269000C90F6C2F6F70C8010E9438136C2F6295A0
:1026A0006F706061C801CF911F910F910C94381326
:1026B0000F931F93CF93DF931F92CDB7DEB78C019B
:1026C000FC018681681728F4C80149830E944013E1
:1026D0004981F8018781869586958695481758F433
:1026E0004583642F606BC8010F90DF91CF911F91DC
:1026F0000F910C9438130F90DF91CF911F910F9190
:102700000895CF92DF92EF92FF920F931F93CF9392
:10271000DF93EC01F62EC42ED22E8F8186958695FE
:102720008695081710F00FEF080F1D2D011780F088
:10273000412F6F2DCE010E945813EF2CCE1430F094
:1027400060E0CE010E94B00DE394F8CF1F5FEECFA2
:102750004D2D6F2DCE01DF91CF911F910F91FF90E5
:10276000EF90DF90CF900C9458132F923F924F929E
:102770005F926F927F928F929F92AF92BF92CF9211
:10278000DF92EF92FF920F931F93CF93DF93CDB71A
:10279000DEB727970FB6F894DEBF0FBECDBFDC01C2
:1027A0001B960D911C911C970115110509F462C12E
:1027B0009F838E83F801B491319644913196549061
:1027C0003196A491EA2EF12CF7E0EF0EF11C23E0F4
:1027D000F594E7942A95E1F7EB82F8013496749129
:1027E0003196E491671758F0862F90E02E2F30E055
:1027F000F901E70FF11D8E179F070CF473C06D30C0
:1028000069F4AE81BF8116968C91882309F467C064
:1028100060E08E819F810E94401361C06A3009F0A0
:1028200029C1EE81FF8181856581D62E8E9DD00CD8
:1028300011248781869586958695D81630F08285F5
:10284000882319F082E08287D12C4D2D60E08E81A3
:102850009F810E945813AE81BF811A968C911A975E
:10286000823008F43CC015962C9115971B96ED917B
:10287000FC911C97309741F03396E49119960C9196
:10288000E09FE02D112401C0E0E08FEF820F0E2FBA
:1028900010E0095F1F4F93E0159507959A95E1F7B2
:1028A000080FEE81FF81468141506481CF010E9473
:1028B0008113AE81BF8119968C9119976D2D8E9DD4
:1028C000600D1124660F660F660F17968C918617A0
:1028D00008F460E060648E819F810E94381381E07B
:1028E00090E0CAC050E05B2BC8010696671BEE81E2
:1028F000FF81F185F9834230510588F4452B09F0B9
:1029000019825E9C90015F9C300D1124629F8001B2
:10291000639F100D1124080F191F412C24C0EA2FAA
:10292000E77021F048E0442E4E1A01C0412CA82F38
:10293000FC0140E050E07E2F7A1B761728F474915A
:10294000470F511D3196F7CFFC01E60FF11D549052
:102950004E9D80014F9D100D5E9D100D1124020FA4
:10296000131F080F191FAE81BF811496BC91BC8341
:10297000EE81FF813580652C712CCC24C394D12C41
:10298000812C912C7FEF7C0D7A838B81781708F056
:102990005FC0212CAE81BF8119968C91281608F05A
:1029A00051C07A81711102C0222051F0AE81BF81E5
:1029B00015964C9115974F5F6C81CD010E9458136D
:1029C000A12CB12CA51488F5F501E80DF91DE00F37
:1029D000F11F2491442061F0CE14DF0449F4E22F6A
:1029E000F0E0042C02C0F595E7950A94E2F72E2F4B
:1029F000EE81FF818185823079F4E22F2110E2950A
:102A0000EF70F0E0E957FD4F2491622F8E819F8196
:102A10002D830E94B00D2D81622F8E819F810E9497
:102A2000B00DFFEFAF1ABF0ACDCFB12C7981B71629
:102A300039F060E08E819F810E94B00DB394F6CF93
:102A40002394A8CF860C971CBFEFCB1ADB0A9ACF32
:102A5000AE81BF8117968C9117978695869586953E
:102A6000381608F03CCF15963C921597632D606B95
:102A7000CD0133CF80E090E027960FB6F894DEBF0B
:102A80000FBECDBFDF91CF911F910F91FF90EF90BF
:102A9000DF90CF90BF90AF909F908F907F906F907E
:102AA0005F904F903F902F9008950F93CF93DF93B7
:102AB000EC010F8106950695069501504E81415017
:102AC00020E060E00E94811381E09A85911101C0AD
:102AD00080E08A8760E4CE01DF91CF910F910C9462
:102AE0003813CF93DF931F92CDB7DEB791E0909369
:102AF0000B0580932D0510920C0510922E0587E191
:102B000096E049830E945E0E4981642F87E196E03A
:102B10000E945E0E0F90DF91CF910C94E609EF9228
:102B2000FF920F931F93CF93DF93CDB7DEB7C755B7
:102B3000D1090FB6F894DEBF0FBECDBF8C011C8249
:102B40001B8284E3E82E81E0F82EFA82E9821E825D
:102B5000CE0101960E94F90C8B819C819EAF8DAFB6
:102B6000FCAEEBAE8D818FAF8E8121968FAF21971A
:102B70004F81588569857A8525964CAF5DAF6EAFDC
:102B80007FAF25974B855C856D857E8529964CAFFB
:102B90005DAF6EAF7FAF29974F85588969897A8974
:102BA0002D964CAF5DAF6EAF7FAF2D979B892E9664
:102BB0009FAF2E974C895D896E897F8962964CAF55
:102BC0005DAF6EAF7FAF6297488D598D6A8D7B8DFB
:102BD00066964CAF5DAF6EAF7FAF66972C8D3D8D27
:102BE00068963FAF2EAF689719A218A2FF8EEE8E9F
:102BF0001BA2811113C0F8011382128288EE93E0A8
:102C0000A0E0B0E084839583A683B78380E491E05D
:102C100091838083128E118E14864FC04CE352E054
:102C2000BE01655C7F4FCE014E960E94120C882338
:102C300011F3CE01CB960E94100988A199A19C8323
:102C40008B83FA82E9828AA18D838BA18E838CA1EA
:102C50009DA1AEA1BFA18F839887A987BA8788A5B8
:102C600099A5AAA5BBA58B879C87AD87BE878CA598
:102C70009DA5AEA5BFA58F87988BA98BBA8B88A978
:102C80008B8B89A99AA9ABA9BCA98C8B9D8BAE8B88
:102C9000BF8B8DA99EA9AFA9B8AD888F998FAA8F38
:102CA000BB8F89AD9AAD9D8F8C8F4CE352E0BE01F6
:102CB0006F5F7F4FC8010E94C511C801C95ADF4F1D
:102CC0000FB6F894DEBF0FBECDBFDF91CF911F913D
:102CD0000F91FF90EF9008958F929F92AF92BF92C5
:102CE000CF92DF92EF92FF92CF93DF93C82F83E2D0
:102CF00096E09093A8068093A706CC2369F1C5308F
:102D000010F080E00DC140E060E070E0CB010E9477
:102D1000EC0E8823B1F320E1C29FC001112485503D
:102D20009D4FFC01E254FE4F20812F7751F73C96D6
:102D3000408151816281738144365105610571057D
:102D400000F33497C080D180E280F380C114D104B5
:102D5000E104F10421F4D5CFC12CD12C760140E05F
:102D6000C701B6010E94EC0E882359F28091160328
:102D7000909117038115924021F6A0911B03AA237D
:102D800009F4BFCF6091190370911A0361157105A1
:102D900009F4B7CF20911803222309F4B2CFA093EE
:102DA00041062093330680E030E0E1E0F0E0C82FF8
:102DB000AF01082E02C0440F551F0A94E2F72417F2
:102DC000350741F0982F8F5F983089F789E080931D
:102DD0003C0697CF80933C0620912103309122033B
:102DE0002115310519F040E050E008C020912F0373
:102DF00030913003409131035091320320933406D7
:102E000030933506409336065093370646015701F6
:102E1000860E971EA11CB11C80924206909243061A
:102E2000A0924406B0924506E0911C03F0911D0368
:102E3000F0934806E0934706B0E00E94D821860E42
:102E4000971EA81EB91E8092490690924A06A0922B
:102E50004B06B0924C0685E0EE0FFF1F8A95E1F716
:102E6000E150FE4FEF2FFF27E6958E0E9F1EA11C0F
:102E7000B11C80923D0690923E06A0923F06B09211
:102E8000400620911E0330911F032115310521F0CA
:102E9000A90160E070E008C040912B0350912C0321
:102EA00060912D0370912E03D701C60188199909ED
:102EB000AA09BB09840F951FA61FB71F04C0B695AA
:102EC000A79597958795CA95D2F7809338069093E2
:102ED0003906A0933A06B0933B06853F2FE0920750
:102EE000A105B10510F48CE018C0853F9F4FA105E6
:102EF000B10510F480E111C080913703909138033F
:102F0000A0913903B0913A038093490690934A0601
:102F1000A0934B06B0934C0680E28093460681E076
:102F2000DF91CF91FF90EF90DF90CF90BF90AF9067
:102F30009F908F9008958E3008F08E508770806437
:102F400080937C0080917A00806480937A008091E5
:102F50007A0086FDFCCF809178002091790090E086
:102F6000922B0895833081F028F4813099F08230DB
:102F7000A1F008958730A9F08830B9F08430D1F4F9
:102F8000809180008F7D03C0809180008F77809337
:102F90008000089584B58F7702C084B58F7D84BD8D
:102FA00008958091B0008F7703C08091B0008F7D2D
:102FB0008093B00008951F93CF93DF93282F30E0C4
:102FC000F901ED52FD4F8491F901E154FD4FD49187
:102FD000F901E555FD4FC491CC23C9F0162F81119D
:102FE0000E94B217EC2FF0E0EE0FFF1FEF55FD4FE0
:102FF000A591B4918FB7F894111105C09C91ED2F54
:10300000E095E92302C0EC91ED2BEC938FBFDF91AB
:10301000CF911F910895CF93DF9390E0FC01E1548D
:10302000FD4F2491FC01E555FD4F8491882361F10A
:1030300090E0880F991FFC01E956FD4FC591D4918E
:10304000FC01EF55FD4FA591B491611109C09FB7E7
:10305000F8948881209582238883EC912E230BC0DD
:10306000623061F49FB7F8943881822F8095832372
:103070008883EC912E2B2C939FBF06C08FB7F894BA
:10308000E8812E2B28838FBFDF91CF9108953FB722
:10309000F8948091AE069091AF06A091B006B091E1
:1030A000B10626B5A89B05C02F3F19F00196A11DBA
:1030B000B11D3FBFBA2FA92F982F8827820F911DCE
:1030C000A11DB11DBC01CD0142E0660F771F881F15
:1030D000991F4A95D1F708952FB7F8946091AA06E1
:1030E0007091AB068091AC069091AD062FBF08950C
:1030F0000F931F930E946C1860937406709375066B
:103100008093760690937706E0916C06F0916D06B9
:103110000484F585E02D8CE696E0099597FF1FC0A5
:103120000E946C1800917406109175062091760625
:1031300030917706DC01CB01801B910BA20BB30B06
:1031400000917006109171062091720630917306FD
:1031500080179107A207B307B8F28FEF9FEF1F9177
:103160000F9108951F920F920FB60F9211242F9373
:103170003F938F939F93AF93BF938091AA069091B3
:10318000AB06A091AC06B091AD063091A90623E044
:10319000230F2D3720F40196A11DB11D05C026E88F
:1031A000230F0296A11DB11D2093A9068093AA06A4
:1031B0009093AB06A093AC06B093AD068091AE069B
:1031C0009091AF06A091B006B091B1060196A11DF5
:1031D000B11D8093AE069093AF06A093B006B09356
:1031E000B106BF91AF919F918F913F912F910F9019
:1031F0000FBE0F901F901895CF93DF93CDB7DEB71A
:10320000AA970FB6F894DEBF0FBECDBF789484B5F1
:10321000826084BD84B5816084BD85B5826085BDD2
:1032200085B5816085BD80916E00816080936E0060
:103230001092810080918100826080938100809152
:103240008100816080938100809180008160809303
:1032500080008091B10084608093B1008091B000C3
:1032600081608093B00080917A00846080937A00BE
:1032700080917A00826080937A0080917A008160E8
:1032800080937A0080917A00806880937A0010920F
:10329000C10061E08AE00E940B1860E08AE00E94B1
:1032A000DB1760E080E10E940B1861E08AE00E9479
:1032B0000B18E0918805F091890582E08083E09108
:1032C0008405F09185051082E0918605F0918705CF
:1032D0008FEC808310929005E0918C05F0918D0524
:1032E00086E08083E0918A05F0918B058081806182
:1032F0008083E0918A05F0918B05808188608083CE
:10330000E0918A05F0918B05808180688083E0914F
:103310008A05F0918B0580818F7D80836AE771E05B
:1033200088E795E00E94670366E971E088E795E029
:103330000E94090380915206882321F08DE496E0D3
:103340000E94100910922E0610922C061092290647
:103350001092280684E0809327060E946C187B0157
:1033600061E0809127060E940B1861E0809127069A
:103370000E94DB171FB7F89480914802811127C083
:10338000E5EBF2E08491E9ECF2E09491E82FF0E0D3
:10339000EE0FFF1FE956FD4FA591B491EC91E92383
:1033A00021F461E08AE00E94DB1761E08AE00E947C
:1033B0000B188CB580618CBD8CB580648CBD61E0D0
:1033C0008DE00E940B1861E08BE00E940B18809149
:1033D00048028F5F809348021FBF82E580931506E5
:1033E0001092160680911506909116060E942105EE
:1033F0001AE08FEF0E94E2041150D9F783E296E0C1
:103400000E94240520E030E0A90160E083E296E01C
:103410000E943A05182F80932D06813049F00E94B2
:103420006C186E197F09613D774060F381E054C0EC
:103430002AEA31E040E050E068E083E296E00E9452
:103440003A0582FF03C010932E060EC014E00E94BE
:10345000E90480932D061150D1F78A3A11F082E0E9
:103460003BC082E080932E0680912E06823021F0B0
:10347000812C912C540105C0812C912CA12C90E41D
:10348000B92E20E030E0A90167E383E296E00E94D4
:103490003A05A501940169E283E296E00E943A05AB
:1034A00080932D06882349F00E946C186E197F09BD
:1034B000613D774030F388E00FC080912E06823066
:1034C00001F520E030E0A9016AE383E296E00E9482
:1034D0003A05882341F086E08093280683E296E04F
:1034E0000E94D70428C00E94E904807C803C19F423
:1034F00083E080932E060E94E9040E94E9040E9462
:10350000E90483E296E00E94D70480E580931506E3
:103510001092160681E00E946C16882339F08DE423
:1035200096E00E94F90C882331F00CC080E00E94E4
:103530006C168111F4CF6EEA71E088E795E00E9485
:103540006703FFCF65EC71E088E795E00E946703B1
:10355000CE0101960E948F158B819C8190936F06FE
:1035600080936E068D819E81AF81B88580937006B1
:1035700090937106A0937206B093730689859A851D
:10358000AB85BC858093740690937506A0937606F0
:10359000B09377068DE0FE013D96A8E7B6E0019076
:1035A0000D928A95E1F7EA8DFB8DF0938606E09304
:1035B0008506309709F08BC046E06DE188E60E94F1
:1035C000711546E06AE188E60E94711540E16BE101
:1035D00088E60E94711548E06CE188E60E9471154A
:1035E00042E067E388E60E94711546E16AE08CE0FC
:1035F0000E94711589E80E948E0A682F616089E82F
:103600000E946D0A60E088E80E946D0A61E080E82F
:103610000E946D0A61E08FEF0E946D0A60E080E019
:103620000E946D0A81E90E948E0A80938E0661E0F5
:1036300080E00E946D0A60E08FEF0E946D0A60E0FA
:1036400080E80E946D0A80E60E948E0A682F6261FF
:1036500080E60E946D0A60E270E084E40E94DE0B66
:103660006FEF81E00E946D0A61E080E80E946D0AC0
:1036700061E08FEF0E946D0A60E080E00E946D0AB9
:1036800066E08FEF0E946D0A83E80E948E0A682F21
:10369000646083E80E946D0A67E08FEF0E946D0A04
:1036A00061E081E80E946D0A61E080E80E946D0A95
:1036B0006BE684E90E946D0A60E083E80E946D0A6F
:1036C0000E946C1870938D0660938C0604C18581EE
:1036D000882309F471CF09E412E06801E12CF12C90
:1036E0008CE696E00E94790D892B09F45FC0E0FC1E
:1036F0004BC00E947818FC0197FD11C08D329105D6
:1037000091F0C0970A9778F0E0916C06F0916D0601
:103710000284F385E02D8CE696E00995EACF80E0FF
:1037200090E0DC012DC020E030E0A901B12CE130B7
:10373000F10509F0A4C5E0916C06F0916D060284D4
:10374000F385E02D8CE696E02FA338A749A75AA76A
:1037500009950E947818FC01C0972FA138A549A5AA
:103760005AA50A9720F3E130F10509F3BB2009F4CB
:10377000A6C588279927DC01821B930BA40BB50BE8
:10378000F6019183808307C08CE696E00E940413C3
:10379000F60193838283FFEFEF1AFF0A24E0C20E43
:1037A000D11C89E1E816F10409F09ACF80918506D1
:1037B00090918606009761F00E941009809185061D
:1037C000909186060E94B722109286061092850676
:1037D000CE0101960E948F158B819C8190936F067C
:1037E00080936E068D819E81AF81B885809370062F
:1037F00090937106A0937206B093730689859A859B
:10380000AB85BC858093740690937506A09376066D
:10381000B09377068DE0FE013D96A8E7B6E00190F3
:103820000D928A95E1F78A8D9B8D90938606809301
:1038300085068CE696E00E94790D892B51F08CE686
:1038400096E00E940413682F88E795E00E94070223
:10385000F0CF8091850690918606009761F00E94D6
:10386000100980918506909186060E94B7221092D9
:103870008606109285066AED71E088E795E00E9461
:103880006703F8014081518160E070E02AE088E739
:1038900095E00E941E0369EE71E088E795E00E94C2
:1038A0000903F8016281738188E795E00E940903AA
:1038B0006DEE71E088E795E00E9409030C5F1F4FF1
:1038C000F2E00D3A1F07E9F677CE809189069091D4
:1038D0008A06892B31F483E80E948E0A8823A9F393
:1038E00010C00E946C1820918C0630918D06621BCE
:1038F000730B8091890690918A068617970758F76F
:1039000041C361E083E80E946D0A82E90E948E0A49
:10391000282F2F77E22EF82EFF1CFF24FF1C60E0DB
:1039200081E80E946D0A66E08FEF0E946D0A83E8CD
:103930000E948E0A682F6B7F83E80E946D0A61E007
:103940008FEF0E946D0A61E080E00E946D0A60E0E6
:103950008FEF0E946D0A60E080E80E946D0A8091FE
:10396000880691E090930B0580932D0510920C052D
:1039700010922E0560EB87E196E00E945E0E0E9499
:10398000E6098093870666E0809188060E949B097D
:103990008E01045E1F4F580186E0D82ED00EDA1437
:1039A00041F087E196E00E945D0DF50181935F0192
:1039B000F6CF61E08FEF0E946D0A60E08FE40E9415
:1039C0006D0A6CE28EE40E946D0A60E08FEF0E9447
:1039D0006D0A64EB86EB0E946D0AF11002C060E094
:1039E00001C06CE090E080E041E050E0282F269597
:1039F00026952695782F7770F801E20FF11D86172E
:103A000010F09E110AC09A0101C0220F7A95EAF7C0
:103A1000209530812323208309C0208130E002C01B
:103A2000359527957A95E2F720FD9F5F8F5F80336C
:103A3000E9F68091880691E090930B0580932D051F
:103A400010920C0510922E0560EB87E196E00E9423
:103A50005E0ED01621F0F80161918F01F6CF0E9421
:103A6000E6098093870661E08FEF0E946D0A60E0AF
:103A700080E00E946D0A60E08FEF0E946D0A60E0B6
:103A800089E00E946D0A60E080E10E946D0A60E0BA
:103A900081E10E946D0A61E084E20E946D0A6FEF8D
:103AA00085E20E946D0A60E085E70E946D0A61E090
:103AB0008FEF0E946D0A6CE28EE40E946D0A60E056
:103AC00088E40E946D0A60E280E30E946D0A60E073
:103AD0008FEF0E946D0A69E080E30E946D0A60E04A
:103AE00084E50E946D0A64E081E30E946D0A63E050
:103AF00082E30E946D0A63E880E40E946D0A65E239
:103B000086E40E946D0A60E080E60E946D0A60E033
:103B100087E20E946D0A66E080E50E946D0A60E01F
:103B200081E50E946D0A66E982E50E946D0A68E0FF
:103B300086E50E946D0A60E387E50E946D0A60E0F9
:103B400081E60E946D0A60E082E60E946D0A60E0F4
:103B500084E60E946D0A60E085E60E946D0A60EAD4
:103B600086E60E946D0A61E08FEF0E946D0A62E3B3
:103B700082E20E946D0A64E187E40E946D0A6FEFA1
:103B800089E40E946D0A60E08AE40E946D0A60E0A8
:103B90008FEF0E946D0A6AE08AE70E946D0A60E07A
:103BA0008BE70E946D0A61E288E70E946D0A61E07E
:103BB0008FEF0E946D0A64E383E20E946D0A60E069
:103BC00082E40E946D0A6FEF84E40E946D0A66E24F
:103BD00085E40E946D0A65E086E40E946D0A60E457
:103BE00080E40E946D0A66E08EE00E946D0A6AE140
:103BF00080E20E946D0A60E483E40E946D0A60E046
:103C00008FEF0E946D0A63E084E30E946D0A64E412
:103C100085E30E946D0A61E08FEF0E946D0A64E007
:103C200081E30E946D0A69E08BE40E946D0A65E001
:103C30008CE40E946D0A64E08DE40E946D0A60E0ED
:103C40008FEF0E946D0A60E084E40E946D0A60E2DA
:103C500085E40E946D0A68E087E40E946D0A68E2CC
:103C600088E40E946D0A60E087E60E946D0A64E0C5
:103C700080E70E946D0A61E081E70E946D0A6EEFA5
:103C800082E70E946D0A60E086E70E946D0A60E0AC
:103C900087E70E946D0A61E08FEF0E946D0A61E084
:103CA0008DE00E946D0A60E08FEF0E946D0A61E076
:103CB00080E80E946D0A68EF81E00E946D0A61E071
:103CC0008FEF0E946D0A61E08EE80E946D0A61E04C
:103CD00080E00E946D0A60E08FEF0E946D0A60E054
:103CE00080E80E946D0A64E08AE00E946D0A84E820
:103CF0000E948E0A682F6F7E84E80E946D0A61E040
:103D00008BE00E946D0ACE0182960E94E00ABE01FD
:103D10006F5F7F4FCE0182960E94FE0A8AA18823A0
:103D200049F08B859C85AD85BE858C57924FAF4FF2
:103D3000BF4F04C086E39BE0A0E0B0E02CA12223AB
:103D400069F04B855C856D857E854E545D4F6F4F68
:103D50007F4F440F551F661F771F0BC02BA12223D7
:103D600061F04B855C856D857E854C565D4F6F4F50
:103D70007F4F840F951FA61FB71F2DA1222361F02F
:103D80004F85588969897A894C565D4F6F4F7F4FAF
:103D9000840F951FA61FB71F2EA1222361F04B8908
:103DA0005C896D897E894A5D5D4F6F4F7F4F840FBF
:103DB000951FA61FB71F80938F0690939006A09320
:103DC0009106B093920668EE81E00E946D0AC09061
:103DD0008F06D0909006E0909106F0909206F0E267
:103DE000CF16FEE4DF06E104F10408F4B5C0CE010D
:103DF00082960E94E00ABE016F5F7F4FCE018296DD
:103E00000E94FE0A8AA1882349F08B859C85AD8596
:103E1000BE858A5C944FAF4FBF4F04C088EE98E0D8
:103E2000A0E0B0E02CA1222369F04B855C856D8574
:103E30007E854E545D4F6F4F7F4F440F551F661F59
:103E4000771F0BC02BA1222361F04B855C856D850C
:103E50007E854C565D4F6F4F7F4F840F951FA61F79
:103E6000B71F1DA1112361F04F85588969897A898F
:103E70004C565D4F6F4F7F4F840F951FA61FB71F86
:103E80002EA1222309F468C04C015D0126E2820EB6
:103E900022E0921EA11CB11CC814D904EA04FB0440
:103EA00008F45AC0AB81B0E020E03FE24AE350E0C2
:103EB0000E94D8216C507E4F8F4F9F4F28EE33E0E9
:103EC00040E050E00E94F22129013A01A701960149
:103ED000281939094A095B09A8EEB3E00E94D821E4
:103EE00053014201B694A79497948794680D791D65
:103EF0008A1D9B1DA30192010E94F221C901112379
:103F000021F08F819885820F931F0097C1F0019750
:103F1000A0E0B0E060E070E08C019D010027012B83
:103F2000022B032B39F0B695A795979587956F5F70
:103F30007F4FF2CF762F6627682B792B02C060E087
:103F400070E081E70E94DE0BC0928F06D09290064F
:103F5000E0929106F092920661E081E00E946D0A83
:103F600080E40E94AF0A882369F062E081E00E9449
:103F70006D0A80E00E94AF0A882321F068EE81E09C
:103F80000E946D0A81E090E090938A0680938906F2
:103F900061E080E80E946D0A61E08FEF0E946D0A87
:103FA00060E080E00E946D0A60918E0681E90E94C7
:103FB0006D0A61E080E00E946D0A60E08FEF0E9470
:103FC0006D0A60E080E80E946D0A62E080E00E9475
:103FD0006D0A1092A2068CE38093A1061092B9009C
:103FE0008CE08093B8001092970610929806E7E64E
:103FF000F2E085919491E82EE9E6F2E0F490EAE6A9
:10400000F2E0E491E0939906EBE6F2E0E491E093CC
:104010009A06ECE6F2E0E491E0939B068C01802F97
:104020008E198F1548F4F801649183E996E00E9497
:1040300038130F5F1F4FF3CF10929D0683E996E070
:104040000E94551581E890E090939F0680939E060C
:1040500083E996E00E94551582E080939C0660EF0C
:1040600071E083E996E00E94670381E080939C06FB
:104070006BEF71E083E996E00E9409030E94471804
:104080004B015C0168EEC62E63E0D62EE12CF12CCC
:104090000E944718DC01CB0188199909AA09BB09BC
:1040A000883E9340A105B10558F0F1E0CF1AD10840
:1040B000E108F10828EE820E23E0921EA11CB11C3B
:1040C000C114D104E104F10419F783E996E00E94D8
:1040D000551581E090E090934A02809349028AE06E
:1040E00092E090934C0280934B0282E090E0909398
:1040F0004E0280934D0282E192E0909350028093B1
:104100004F0283E090E090935202809351028AE143
:1041100092E0909354028093530284E090E0909355
:1041200056028093550282E292E090935802809367
:10413000570285E090E090935A02809359028AE2F8
:1041400092E090935C0280935B02BB24B39432E0D4
:10415000A32E03EE12E04FECE42E42E0F42E5BEBD4
:10416000C52E52E0D52E83E996E00E945515B092F7
:104170009C060E946C1870938D0660938C0683E1F8
:104180000E948E0A8770D1F48091890690918A06E8
:10419000892BA9F30E946C1820918C0630918D0612
:1041A000621B730B8091890690918A068617970788
:1041B00030F7B0928B064FEF5FEF0CC08EE10E949C
:1041C000430A982E61E08BE09FA30E946D0A492D5F
:1041D0009FA1592F60E070E02AE083E996E00E94F9
:1041E0001E0362E372E083E996E00E94090368E33C
:1041F00072E083E996E00E946703A0929C066091BA
:104200004B0270914C0283E996E00E946703B092E2
:104210009C062AE040E050E0BA0183E996E00E9463
:104220001E0380E090E00E94720981E090E00E940D
:104230007209F8018491F7018490F6019490992015
:1042400079F081110E94B217892D90E0880F991F93
:1042500083599D4FFC01A591B4918C91882261F402
:104260000E946C182B013C010E946C18CB01841930
:10427000950985369105C0F30E94700274CFED3226
:10428000F105D1F0CF01C0970A9708F054CAAAE00F
:10429000B0E00E94D8212F01FF0F66087708DC01EB
:1042A000CB01840D951DA61DB71D9C01AD012053AA
:1042B0003109410951093FCABB24B3943CCADA0110
:1042C000C9015ECAE8E7F5E01382128288EE93E046
:1042D000A0E0B0E084839583A683B78320E131E03A
:1042E0003183208325EC30E03587248724EC30E0CF
:1042F0003787268720EC30E0318B208B21EC30E0B3
:10430000338B228B22EC30E0358B248B26EC30E093
:10431000378B268B118E128E138E148EE5E1F6E00C
:1043200020E520831182E7E1F6E013821282848384
:104330009583A683B78322E231E031832083E3E2D1
:10434000F6E0158216821186138642E050E060E0A6
:1043500070E0448755876687778713A215A614A651
:1043600024E331E033A722A717A6E3E9F6E013829E
:10437000128221E021871486138620E731E0318301
:104380002083E7E8F6E029E2218313821282148277
:10439000ECE6F6E01382128284839583A683B783CA
:1043A00080E491E091838083128E118E14860895AB
:1043B0000E94E321A59F900DB49F900DA49F800DB6
:1043C000911D11240895A29FB001B39FC001A39F26
:1043D000700D811D1124911DB29F700D811D11243E
:1043E000911D0895A1E21A2EAA1BBB1BFD010DC051
:1043F000AA1FBB1FEE1FFF1FA217B307E407F50795
:1044000020F0A21BB30BE40BF50B661F771F881F70
:10441000991F1A9469F760957095809590959B0106
:10442000AC01BD01CF010895B7FF0C94D8210E94C3
:10443000D821821B930B0895EE0FFF1F0590F49176
:10444000E02D0994CF93DF938230910510F482E040
:1044500090E0E091B406F091B50620E030E0C0E0D5
:10446000D0E0309711F14081518148175907C0F0D1
:104470004817590761F482819381209719F09B8333
:104480008A832BC09093B5068093B40626C021156D
:10449000310519F04217530718F49A01BE01DF01E4
:1044A000EF010280F381E02DDCCF2115310509F108
:1044B000281B390B2430310590F412968D919C9174
:1044C00013976115710521F0FB019383828304C06A
:1044D0009093B5068093B406FD01329644C0FD0169
:1044E000E20FF31F81939193225031092D933C9356
:1044F0003AC02091B2063091B306232B41F42091AB
:104500000601309107013093B3062093B206209143
:104510000401309105012115310541F42DB73EB755
:104520004091080150910901241B350BE091B2061E
:10453000F091B306E217F307A0F42E1B3F0B2817E8
:10454000390778F0AC014E5F5F4F2417350748F00C
:104550004E0F5F1F5093B3064093B2068193919321
:1045600002C0E0E0F0E0CF01DF91CF9108950F931A
:104570001F93CF93DF93009709F48CC0FC0132970F
:10458000138212820091B4061091B506011511052F
:1045900081F420813181820F931F2091B2063091E6
:1045A000B3062817390779F5F093B306E093B206FE
:1045B00071C0D80140E050E0AE17BF0750F412962A
:1045C0002D913C911397AD012115310509F1D901C8
:1045D000F3CF9D01DA013383228360817181860FDD
:1045E000971F8217930769F4EC0128813981260F00
:1045F000371F2E5F3F4F318320838A819B819383B6
:104600008283452B29F4F093B506E093B40642C0AB
:104610001396FC93EE931297ED01499159919E01E7
:10462000240F351FE217F30771F480819181840F05
:10463000951F029611969C938E9382819381139677
:104640009C938E931297E0E0F0E0D80112968D9142
:104650009C911397009719F0F8018C01F6CF8D917A
:104660009C9198012E5F3F4F820F931F2091B206BD
:104670003091B3062817390769F4309729F410925E
:10468000B5061092B40602C0138212821093B306CC
:104690000093B206DF91CF911F910F91089581E0B1
:1046A00090E0F8940C947023FB01DC0104C08D9120
:1046B0000190801921F441505040C8F7881B990B94
:1046C0000895FB01DC014150504048F001900D92EB
:1046D0000020C9F701C01D9241505040E0F70895F5
:0446E000F894FFCF7C
:1046E400FFFFFFFF0000B60680000000000000008E
:1046F40007027A029F014E02D001AE01C2010000FE
:1047040000005E0E2E0E2B0E4D0D710D5D0D4E0D27
:1047140000000000FF087A022B0E2A0E00000000A1
:104724009A0D950E2B0E8D0E790D04130E130000A9
:104734000000AF027A022B0E2A0EAF02AF02AF02C4
:1047440000000000AF027A022B0E2A0E00000000C7
:10475400B5137A022B0E2A0ED10D53657269616C62
:1047640020696E697469616C697A6174696F6E201D
:10477400446F6E652100496E697469616C697A6978
:104784006E6720534420636172642E2E2E00696E7E
:10479400697469616C697A6174696F6E20666169B4
:1047A4006C65642100696E697469616C697A61740D
:1047B400696F6E20646F6E652E006C61626C657348
:1047C40020636C6F7365642E003A2020000D0A008C
:1047D400526564456467654D4D53002020202020B8
:1047E400202020362F3231303800506C616E742D09
:1047F4004100506C616E742D4200506C616E742DDA
:104804004300506C616E742D4400506C616E742DC5
:104814004500202020202000203030006C61626C94
:0848240065732E747874000026
:00000001FF
